:1000000072C07FC07EC07DC07CC07BC07AC079C01A
:1000100078C077C076C075C074C073C072C071C03C
:1000200070C06FC06EC0000000000000312151712F
:1000300041615A7A00003323322245655777446480
:100040005373436358783525342454745272476788
:1000500046664262567637273626557559794A6A7A
:1000600048684D6D4E6E392938284F6F49694C6C80
:100070004B6B2E3E2C3C2D3D3030406050703A2A68
:100080003B2B5F5F2F3F5E7E5C7C5B7B08005D7D72
:100090000D002000000000000000000000001E0015
:1000A0001F001D001C0011141216151C1A76261EA6
:1000B000241D231B21222E252C2D342B322A3D36A4
:1000C0003C353B333A31463E44434B4249414E4531
:1000D000544D524C514A556A5B665D5A290E0D8348
:1000E0000A0175726B7411241FBECFEDCDBF10E0F5
:1000F000A0E6B0E001C01D92A136B107E1F74ED1F4
:100100003DC27ECF9DBD8CBD88B7806888BF08B6D4
:1001100007FEFDCF08958FEB9CEF9DBD8CBD88B78A
:10012000806888BF08B607FEFDCF0895682F919AB2
:100130008FEB9CEF9DBD8CBD88B7806888BF08B6EB
:1001400007FEFDCF91E020E030E04FEB5CEF892F20
:10015000862311F0919801C0919A5DBD4CBD88B77E
:10016000806888BF08B607FEFDCF990F2F5F3F4F0D
:100170002830310561F791988FEB9CEF9DBD8CBDC8
:1001800088B7806888BF08B607FEFDCF0895682F3E
:1001900093988FEB9CEF9DBD8CBD88B7806888BF1E
:1001A00008B607FEFDCF91E020E030E04FEB5CEFBA
:1001B000892F862311F0939A01C093985DBD4CBDA1
:1001C00088B7806888BF08B607FEFDCF990F2F5FFC
:1001D0003F4F2830310561F7939A8FEB9CEF9DBD1F
:1001E0008CBD88B7806888BF08B607FEFDCF08952C
:1001F0009C0140EC50EE08C05DBD4CBD88B78068E6
:1002000088BF08B607FEFDCF215030408FEF2F3F4B
:10021000380791F7089580EB9FEF9DBD8CBD88B79F
:10022000806888BF08B607FEFDCF899A80E79EEFF9
:100230009DBD8CBD88B7806888BF08B607FEFDCF1E
:10024000899880EB9FEF9DBD8CBD88B7806888BF83
:1002500008B607FEFDCF0895DEDF80B381700895F4
:100260000F931F93CF93DF9380916000813091F5BE
:10027000819B30C080992EC0EFDF11E000E0C0E02C
:10028000D0E0EADF8111012B110F2196C830D10592
:10029000C1F7E2DFE1DF8823E9F0889ABCDF8898C4
:1002A00082E090E0A5DF0F3F39F48AEF18D088E5AF
:1002B00092E09EDF8AEA0DC0023F31F48AEF0FD050
:1002C0008BEA0DD083E805C00E3E11F48EEE01C01E
:1002D0008AEF05D0DF91CF911F910F9108950F9371
:1002E0001F93CF93DF93182F819902C036C0B8DFD8
:1002F000809BFDCFE12FF0E0AF01440F551F60E080
:1003000020E030E0CF01022E02C0959587950A9437
:10031000E2F780FD6F5F2F5F3F4F2830310591F787
:1003200060FF52608A011460C0E0D0E0C8010C2E6A
:1003300002C0959587950A94E2F780FF02C08898DD
:1003400001C0889A68DF819B04C02196CB30D1051B
:1003500069F7889882E090E04BDFDF91CF911F91A1
:100360000F9108950F931F93082F162F809160000F
:10037000813089F40C3314F080EEB1DF113011F4C8
:1003800080EFADDFE02FFF27E7FDF095EA55FF4F47
:10039000E4918E2FA4DF1F910F9108952F923F9229
:1003A0004F925F926F927F928F929F92AF92BF9285
:1003B000CF92DF92EF92FF920F931F93DF93CF9331
:1003C000CDB7DEB760970FB6F894DEBF0FBECDBFD6
:1003D000929A8A988FEF88BB81B3886781BB82B37A
:1003E000886382BB829B05C0899A919810926000B5
:1003F00009C082B38C7F82BB81B38C7F81BB81E0DB
:10040000809360001FBC81E08EBD80E090E0AE0173
:10041000475F5F4F6FEF9E012F5F3F4F969A969811
:10042000FA01E80FF91F6083F901E80FF91F108244
:1004300001968830910591F784EF91E0D9DE949888
:10044000662410E0EE24FF2459E0252E312C2C0EDA
:100450003D1E06C06394820C931CF4015082102F41
:10046000FFDE662011F4959801C0959A80E79EEF13
:100470009DBD8CBD88B7806888BF08B607FEFDCFDC
:10048000969A9698E0ECF0EEFDBDECBD88B78068DA
:1004900088BF08B607FEFDCF56B2862C992487FC8C
:1004A0009094F101E80DF91D70807520012F40E84E
:1004B000D42E31E0A32EB12CAC0EBD1EA80CB91C5D
:1004C00028E0422E410EF501C0808D2D8C219D2DFE
:1004D00097218823E9F0992389F403300CF443C071
:1004E00088E090E0E80EF91E91EBE91694E0F90639
:1004F000D4F18D2D80958C21808335C09498802FE8
:1005000061E030DF8D2D80958C21F501808324C042
:10051000992349F5949AE02FEE0F898185FDEF5FCD
:10052000F0E0EA5DFF4F149180916000882329F488
:10053000112351F0812FFADD05C0802F60E012DF1A
:10054000112311F0812F23DECD28F501C082F1EBBC
:10055000EF16F4E0FF061CF4EE24FF2404C098EE2E
:10056000E92E93E0F92ED6940F5F041509F0ABCF76
:1005700000340CF46FCF662400E06DCFF894FFCF09
:00000001FF
